:020000040000FA
:10000000080D0020B9020000C7020000CD3B00002F
:1000100000000000000000000000000000000000E0
:10002000000000000000000000000000CB02000003
:100030000000000000000000CD020000CF02000020
:1000400091520000D1020000D1020000D102000054
:10005000D1020000D1020000D1020000D102000054
:10006000D1020000D1340000D10200004557000049
:10007000D1020000D1020000D1230000D102000013
:10008000153D0000D1020000DD2A0000D102000071
:10009000D1020000D1020000D1020000D102000014
:1000A000D10200000000000000000000000000007D
:1000B0000000000000000000000000000000000040
:1000C00000F002F800F0CDF812A030C8083824186B
:1000D0002D18AC4201D100F0C4F80FCCA246AB46BB
:1000E0000CA730CF2D1B083F3F197C427F1E544484
:1000F0002D090426F441641EAC4201D300F0B1F88E
:100100000126334200D0FB1A3343984754465D46DC
:10011000DFE70000C06E0000E06E0000103A02D37E
:1001200078C878C1FAD8520701D330C830C101D598
:1001300004680C6070470000704700000023002432
:1001400000250026103A01D378C1FBD8520700D30E
:1001500030C100D50B60704710B56E2902D100F098
:1001600047FC10BD702902D100F083FD10BD662947
:1001700002D106F0ABFC10BD652902D106F0A6FC49
:1001800010BD672902D106F0A1FC10BD612902D182
:1001900006F0A4FC10BD03681B0A01D38023194399
:1001A000692902D100F0EEFB10BD642902D100F0F4
:1001B000E9FB10BD752902D100F0E4FB10BD6F29E9
:1001C00002D100F001FD10BD782902D100F03EFD02
:1001D00010BDE92902D100F09DFC10BDE42902D137
:1001E00000F098FC10BDF52902D100F093FC10BD81
:1001F000EF2902D100F0F4FC10BDF82902D100F083
:1002000033FD10BD0368DB0901D380231943632943
:1002100002D101F0FAFB10BD732902D101F0FDFB00
:1002200010BDE32902D101F007FC10BDF32902D172
:1002300001F00AFC10BD002010BD1FB502F0BBF894
:1002400001F014FD04000020002106F08FF9401C8D
:1002500060600020002106F073F9E0601FBD10B55A
:1002600010BD01F0DBFC1146FFF7E7FF05F066FD6E
:1002700001F00FFE03B4FFF7F2FF03BC02F06AF8CF
:1002800070B505460C46164602E00FCC0FC5103E71
:10029000102EFAD2082E02D303CC03C5083E042E3A
:1002A00007D301CC01C5361F03E021782970641CF7
:1002B0006D1C761EF9D270BD094880F30888094884
:1002C000804709480047FEE7FEE7FEE7FEE7FEE756
:1002D000FEE7000005480649064A074B7047000044
:1002E000080D002089520000C1000000080700200E
:1002F000080D00200809002008090020434351434D
:1003000030B55C18010C130C0D4692B25D4380B2FF
:1003100051432C19054655430A0C09044D196241F5
:100320005843010C00044019514130BD7CB51D46B5
:1003300016460C00009007D04142A14202D300199A
:10034000401E01E00020C043064B7B442A4669461C
:100350000190304600F065FB002C02D0009A00218D
:1003600011707CBDFB060000F8B5042A2CD383076E
:1003700012D00B78491C0370401C521E83070BD00F
:100380000B78491C0370401C521E830704D00B7865
:10039000491C0370401C521E8B079B0F05D0C91AC5
:1003A000DF002023DE1B08C90AE0FFF769FFF8BD64
:1003B0001D4608C9FD401C46B4402C4310C0121F06
:1003C000042AF5D2F308C91A521EF0D40B78491C3E
:1003D0000370401C521EEAD40B78491C0370401C69
:1003E000012AE4D409780170F8BD01E004C0091FB6
:1003F0000429FBD28B0701D50280801CC90700D0DD
:100400000270704700290BD0C30702D00270401C55
:10041000491E022904D3830702D50280801C891E4D
:10042000E3E70022EEE70022DFE7000000220309F5
:100430008B422CD3030A8B4211D300239C464EE0FF
:1004400003460B433CD4002243088B4231D30309BB
:100450008B421CD3030A8B4201D394463FE0C3096D
:100460008B4201D3CB01C01A524183098B4201D385
:100470008B01C01A524143098B4201D34B01C01A70
:10048000524103098B4201D30B01C01A5241C308E8
:100490008B4201D3CB00C01A524183088B4201D357
:1004A0008B00C01A524143088B4201D34B00C01A43
:1004B0005241411A00D201465241104670475DE058
:1004C000CA0F00D04942031000D3404253409C461B
:1004D000002203098B422DD3030A8B4212D38901D8
:1004E000FC2212BA030A8B420CD3890192118B426F
:1004F00008D3890192118B4204D389013AD0921119
:1005000000E08909C3098B4201D3CB01C01A5241D3
:1005100083098B4201D38B01C01A524143098B429C
:1005200001D34B01C01A524103098B4201D30B0185
:10053000C01A5241C3088B4201D3CB00C01A5241AA
:1005400083088B4201D38B00C01A5241D9D2430891
:100550008B4201D34B00C01A5241411A00D20146CE
:100560005241104663465B1001D34042002B00D538
:100570004942704763465B1000D3404201B50549CC
:10058000002802DC491C084000E00846C046C0467E
:1005900002BD00BFFFFFFF7F70477047704700003C
:1005A000F8B5FF242404C509FF26C209CB0925405C
:1005B000013607462240234035434F40002A78D079
:1005C000002B76D0A24274D0A34272D0002F00DA62
:1005D0002A460124E405204300022143000A0902BF
:1005E000090AD21A4B0C7F24E31A604C7C44E35C6A
:1005F0007D2424041219FF240134154625401414C7
:100600005B00A618884201D3761C00E040004C42F3
:100610002146594309115943DA0149158918020A3B
:100620004A43120D2346C00253431818030A4B4392
:100630000103D80C234643435918009111030818AD
:1006400000996242914202D30919401C0091F105C0
:100650000F180098002810D001208007054300F0F3
:100660001FF9006801028A0F414908D0EA0500D449
:1006700040081722D04032D30AE0002108E0009859
:100680004000201804D37F1C002813D001218907C3
:100690003F2080040424864225D3002E0DDC300642
:1006A000000F20D0032040073818214300F058FDE8
:1006B000F8BD1EE07F087F00EAE701217800090607
:1006C00041187F20400681420DD20520400738188E
:1006D000FF210131274C8D43254300953CE001214A
:1006E00089077F1CD4E70120800705403846DFD00A
:1006F000F2E7002F00DA2A461F4DA2420CD2A34295
:100700000AD24C0023D0440004D000F073FC000A4D
:10071000090A66E7D005CBE7FF2644003606B44257
:1007200002D84B00B34203D92A4600F045FCBFE78C
:10073000B44203D1B34201D1D00510E0B34201D19C
:10074000002101E041004908D0050843B0E742001C
:1007500005D00A4C0A46009400F05CFBA8E70A4664
:10076000BBE70A46014610461AE70000FC64000099
:10077000000000C004000010040000040400000891
:10078000F8B50402C11520221A4D9E23002903D07A
:100790009606344300290DDB591A00291FDD204637
:1007A000C840511A01D48C4000E06408002C20D0CD
:1007B00000951CE00906090E01D164006408591A6D
:1007C0000DD42346CB405E42002E08DC501A01D4E3
:1007D000844000E06408002C30460AD0E8E7FF229D
:1007E0004100054C1206914200D9044C009400F0DF
:1007F00011FBF8BD48000040480000044800010417
:10080000F8B504461F20220C02D10F20240402D088
:10081000220E02D003E02046F8BD24020838220F41
:1008200001D12401001FA20F01D1A400801E002CC1
:1008300001DB6400401EC005401821120D1820067F
:10084000000E0BD000F02CF80068144E0102890F46
:1008500006D0E90FC9070CD540020BE02846F8BDC9
:100860001920844009D36D1C002C06D16D086D0041
:1008700003E00002002800DB6D1C2846009600F013
:10088000C9FAF8BDC10FC90700D040420122920742
:100890001143B5E701218907B2E7000008020040D3
:1008A000004870470C00002010B500F0DDFC006827
:1008B00010BD10B5044600F0D7FC046010BD70B543
:1008C000044685690068C10601D5302600E020266F
:1008D000C00707D070BD62683046A1689047206AA3
:1008E000401C20626D1EF6D570BD70B5044685694A
:1008F0000078C00707D170BD6268A16820209047CA
:10090000206A401C20626D1EF6D570BD09684A053C
:1009100001D540B27047C905FCD500B270470968DF
:100920004A0501D5C0B27047C905FCD580B27047F1
:1009300070B50C460546012A05D02878800600D5FA
:10094000EA69002302E0012305E05B1C934202D226
:10095000E05C0028F9D1A869E618C01AA861286AE5
:10096000C01828622846FFF7AAFF04E06A682078CA
:10097000A968641C9047B442F8D32846FFF7B5FF36
:1009800070BD0000F7B5002575291068009914A600
:1009900011D0FFF7BBFF002802DA404211A608E0A1
:1009A000009909688A0701D50FA602E0490704D516
:1009B0000EA6012501E0FFF7B2FF009F00242437B7
:1009C00004E001F066F830313955641C0028F8D194
:1009D0002B4632462146009800F0A2FCFEBD0000E6
:1009E000000000002D0000002B000000200000008F
:1009F00011680268006A530501D5087009E0D30543
:100A000001D5088005E0130602D5C21705C100E034
:100A1000086001207047000001694A1C02610878E3
:100A2000704700B58FB002910021059105490193EF
:100A30007944039111460490684600F027F90FB0FD
:100A400000BD0000E5FFFFFF0CC908399A4202D241
:100A5000531C0B6010707047F7B50446154686B0FE
:100A60002B487844002703C83E460090019111E0CE
:100A700007986A467100415A02A800F0E9FF411C3C
:100A800007D02178890603D5E269391891420ED83A
:100A90003F18761C2078800602D5E069B84206DD52
:100AA000AE42E5DB07987100405A0028E0D1A0690A
:100AB000C01BA0612046FFF702FF154878445A3852
:100AC00003C800900020019116E041006A46079893
:100AD000415A02A800F0BCFF0590401C0AD0002536
:100AE00005E0626802A8A168405D90476D1C05980A
:100AF0008542F6D30498401CB0420490E5DB206A9E
:100B0000C01920622046FFF7F0FE09B0F0BD0000DA
:100B100006610000F7B5D21D0025D20815A6D20047
:100B2000F52905CA11D0002A05DA00214042914179
:100B300011A60A4608E0009909688B0701D50FA69F
:100B400002E0490701D50EA601251146009F0024A9
:100B5000243704E000F08CFB30323A55641C024626
:100B60000A43F7D12B4632462146009800F0D8FBC5
:100B7000FEBD0000000000002D0000002B00000062
:100B80002000000070B504460021243408E0550719
:100B9000D2086D0F303565545D072A43DB08491CC8
:100BA00015461D43F3D10468002310A2250708D57C
:100BB00020252C400C4304D0C46901230CA2641EE0
:100BC000C46100F0ADFB70BD10B50446214610684D
:100BD000FFF7A5FE002302462046FFF7D3FF10BD16
:100BE000D21DD108C9000CC9CCE7000000000000EC
:100BF00030000000F8B50F460188090502D5224CE7
:100C00007C4402E0204C7C440E340546002124350F
:100C100008E016071209360FA65D6E541E07324310
:100C20001B09491C16461E43F3D1224604780023B3
:100C3000240705D5702F06D0002901D002231132D8
:100C400000F06EFBF8BD01231032F9E770B50446E1
:100C50000D4621461068FFF762FE00230246294632
:100C60002046FFF7C7FF70BDD21DD308DB000CCBB9
:100C7000C0E730B4036820241268234303600823CC
:100C8000C36130BC0023B5E7705F0000F3B50446D4
:100C9000002081B020622046E1688847002872D099
:100CA000252802D06268A168ABE0594F00267F4436
:100CB0002046E16888472028054608DB312D06D20A
:100CC000781920380078002801D00643F0E7B007F3
:100CD00001D5042086430020E0610746A0612A2D4B
:100CE0000AD0284605F066FB002827D0B800001976
:100CF000303D0090856119E00298BA00121902C8CF
:100D0000916102902046E1688847012F054617D17E
:100D1000E06900281FDA202086431CE000980A21A1
:100D20008069484300994019303888612046E1685D
:100D30008847054605F03EFB0028EFD1012F0AD079
:100D40002E2D08D12046E16888470546202006431D
:100D50007F1C022FC3DBA069002803DA4042A06198
:100D600001200643F00701D0102086436C2D0BD0E4
:100D7000682D09D04C2D3CD06A2D38D0742D38D038
:100D80007A2D36D016E040E0E1682F4620468847AD
:100D9000B842054609D16C2F29D001208002E168B4
:100DA000064320468847054604E06C2F1DD0FF20EF
:100DB00001300643002D28D028464138192803D891
:100DC0000120C00206432035204626602946029AAB
:100DD0001646FFF7C1F9002810D001280BD0F61DE8
:100DE000F008C0000830029055E74020E1E780207D
:100DF000D5E70020D3E7361D02964CE76268284607
:100E0000A1689047206A401C44E7206AFEBD0000AC
:100E1000EA5E0000F0B51FB482B006460F460C9C97
:100E2000FFF73EFD8446016803202246000702408A
:100E3000880413468646834302D00120800704437A
:100E40006000C00E0B0A98437346134201D0102273
:100E50009043014360460160072080050B46034034
:100E600022461A431007000F0A2807D0082805D089
:100E7000104670231840C000024304E0900302D5DE
:100E8000032080050243900E000203059B0F03D050
:100E900008400005800F00E0084000284ED11307ED
:100EA0001B0F092B09D0D00020D410010AD4500107
:100EB0004CD43046394607B0F0BD1146002000F052
:100EC000FCFD53E0500601D536484FE0D00602D570
:100ED0003846059901E00499304648400A2B01D173
:100EE0000020C043C00FC00700211BE00120000705
:100EF0008243100602D5F80FC00701E0F00FC007CB
:100F0000002801D0172300E018230C46DC4009D349
:100F1000D30603D50023DB43234D08E0234B0AE02F
:100F2000184623E0D30604D51F4D00236D1C05434E
:100F300002E0FF23DB050343C804F1D500923946E4
:100F40003046059B049A00F0D1F9B4E7500625D449
:100F50001004800F04D010040AD50599049809E004
:100F6000D00602D50020124D00E012482946A2E723
:100F700030463946130603D50123DB04194302E04A
:100F800001239B051843D3085340DB0603D5120900
:100F9000120108231A4300F0F5FD8CE7394630466C
:100FA000F9E7000001000080FFFFEF7FFFFF7F7F78
:100FB0000000F87F0000C07FF8B501274400FF055E
:100FC000E5194C00E6197C42A54201D97C1203E0E8
:100FD000A64208D90124E40314430A46614600945A
:100FE000FFF718FFF8BDBD4200D30846194600F0D0
:100FF000C9FDF8BDF0B5000209021402204E214FD0
:10100000214D240E1FD1A84201D2921B0004040ED0
:1010100003D10124E404121B0002040F01D1D21BEE
:101020000001840F03D101246404121B80000028F6
:1010300001DB400000E052191C02240E03D0012401
:10104000E4072143F0BD0124E4072043A94201D273
:101050009B1B09040C0E03D10124E4041B1B090291
:101060000C0F01D1DB1B09018C0F03D10124640497
:101070001B1B8900002901DB4900F0BD5B19F0BD95
:1010800000001000000004000000010038B5C20D8F
:10109000FF2413061B0E09D05C4007D0A14205DADD
:1010A0005A42914202DDC905081838BD4202002BA0
:1010B0002DD0002C48D0DA05821AFF24D9342548D7
:1010C000E14218DDA14200DAC918FF290DDBC03961
:1010D000FF2903DBD10FC907081801E0C805104339
:1010E0001D4C0094FFF796FE38BD002902DDC805AF
:1010F000104338BDC031002903DCD10FC9070818DF
:1011000001E0C80510430B2100F02AF838BD002A81
:10111000FCD0140C02D10F23DB431204140E01D1B6
:101120001202083B140F01D112011B1F940F01D1B1
:1011300092009B1E002A01DB52005B1EC00F520072
:10114000C007520A0243B8E7002ADFD0034900F083
:1011500001FD38BD0000C07F0B0000100B00000433
:10116000F8B50E460546FFF79BFB0268E90FD30171
:10117000C907002B01DA0846F8BD130503D5012481
:10118000284664073AE0EB0D0B43FF2101318B4306
:10119000C121C91A4B005B080827172B3BDC202311
:1011A0005C1A2B46A3402C02240A3D052C43CC405C
:1011B000C90FC9070C43002B17D03A431102026034
:1011C000890F1ED1012083400DD3002B21D1F017B0
:1011D000C1437000C00F01D0002904D1641C002855
:1011E00001D164086400204633E0710001D4204638
:1011F000F8BD3A43026020460124A4072643009626
:101200002AE00068002C01DA400200E00002002819
:10121000E9DB641CE7E73A43110202608A0FEC0F36
:10122000E90DE4072143FF240134A143C124611ADD
:101230004C00E40A6118CC0FE407002AE1D1182B16
:10124000D1D1601C6902F20FD207114301D14008CD
:1012500040000124A4070094FFF7DCFDF8BD000066
:101260000048704708000020004870470800002030
:101270000B4670B5024689078008084319469D0849
:10128000141AA94125090807054308092C194841E2
:10129000250A01060D43010A2C194141200C0D04B9
:1012A00028430D0C00194D41002140194D41C00843
:1012B00069070843E908840F8D002543840024183A
:1012C0004D4124196D41121BAB4107E00925ED4347
:1012D0002C11521963410024401C61411C460A250F
:1012E0000026551BB441F1D270BD00001FB584B07B
:1012F00000200A9C06AB04AA02A90094C046C0467E
:10130000002803D00399029808B010BD034820407C
:1013100000F0C7FD00200146F6E700000000207C39
:10132000FFB504460D4681B0243000902168880640
:1013300004D51022E0699143216000E00120A84219
:1013400001DD471B00E000270498A1697A191018F5
:10135000081AA0612078C00602D42046FFF7AFFA31
:10136000002608E003986268A168805D9047206AC3
:10137000401C761C206204988642F3DB2078C0066D
:101380000AD52046FFF79BFA06E06268A168302084
:101390009047206A401C206238467F1E0028F4DCFB
:1013A00007E000986268A168405D9047206A401C91
:1013B000206228466D1E0028F3DC2046FFF795FAD0
:1013C0002078000602D5022005B0F0BD0120FBE721
:1013D000FFB50E461C468BB050681168149DC20FB5
:1013E0004000039240084200520D01D0012300E06A
:1013F0000023D31A00271A05C91B90410190C54844
:10140000009118180290019801430BD00021084662
:1014100000F04EFD0102890F15D00399002914D068
:10142000400213E0012D02D00020302105E0E0430E
:101430000797069005E03154401CA042FBDB06975D
:101440000794089527E0002005E00002002801DA53
:10145000022000E00120012D08950DD0002104910B
:1014600009AA06A903940590304600F047FC0790AE
:101470000998002802D005E00121F0E71021084674
:1014800000F016FD012D06D106990798641C091974
:10149000884200DA0897079806AC37540ECC0B98B0
:1014A0000EC00FB0F0BDF0B50D460446D21DFFB022
:1014B000D108CAB0C90003C90490059104F0FAFE2E
:1014C00002460598C00F01D02D2007E02068810753
:1014D00001D52B2002E04007C00F4001032A0A90EB
:1014E00001D0072A05DB03462946204600F0C2FB4F
:1014F0000BE12078800601D5E76900E00627284641
:10150000854B652D04D0662812D0672D65D12BE060
:1015100000209F42009000DA7B1C04AA0BA907A8B8
:10152000FFF756FF0899002607987D1C069140E0BA
:1015300001203B4604AAC0070390012000900BA99C
:1015400007A8FFF745FF089D09990798002600297D
:10155000069501D1791C4518781B02D446427D1CA2
:10156000761EE81B009038E0012F00DA01270020EA
:101570009F42009000DC3B4604AA0BA907A8FFF796
:1015800027FF08993D46079800260691217809070C
:101590000BD40699A94200DA0D460BA9012D04DDF2
:1015A0004A19203AD27F302A06D0B84201DA011D0A
:1015B00004DA012100910FE06D1EEFE7002802DC44
:1015C00086192D1A03E0411CA94200DD0D46801B3F
:1015D000401C00900120C00703902078000705D42C
:1015E0000098A84202DB0020C0430090694600201A
:1015F000C8720398012102AF0337C907884225D07A
:10160000022007902B200890039800280BDA404214
:1016100003902D20089006E0039800F03AFA30314C
:101620007F1E039039700799481E00290790F3DC4C
:1016300003980028F0D108987F1E38702088000594
:1016400001D5452000E065207F1E387001A8C01B31
:10165000C01D03900A98002800D00120411900986D
:10166000C017091803980818A169081A401EA0613C
:101670002078C00602D42046FFF721F90A980028F6
:1016800005D06268A1689047206A401C20622078DB
:10169000C00625D52046FFF712F921E0002E07DB12
:1016A0000698B04204DD0BA86268805DA16802E084
:1016B0006268A16830209047206A761C401C206236
:1016C0000098401E002800900AD100F0CFFAC068B0
:1016D00062680168405CA1689047206A401C2062F3
:1016E00028466D1E0028D9DC07E062683878A168BA
:1016F0007F1C9047206A401C20620399481E0029E5
:101700000390F2DC2046FFF7F0F87FB04AB00320E8
:10171000F0BD0000CEFBFFFFF1020000D21DF0B5CE
:1017200004460D46D0088DB0C000466807683146B3
:10173000384604F0BFFD0246F00F01D02D2307E02C
:101740002068810701D52B2302E04007C00F430129
:101750006846002B037001D0012000E00020032A1E
:101760000A9001D0072A04DB2946204600F082FABD
:101770002DE12078800601D40D2500E0E569700098
:10178000400D0D2D01904BDA300D00210B900846D5
:1017900000F08EFB032189050840002E05DA820047
:1017A0008018C20F1018401008408015012801DD74
:1017B0000020C043A9000023182906D39C460A46EE
:1017C0000123183A1B07D34003E001221205CA4047
:1017D00094460C31202902D33A46203900E03246A3
:1017E0008A40002802DD002A06D119E0002817D11E
:1017F0000121C9078A4213D3194663467F185E4107
:10180000002806D10120C007824202D10846874342
:101810009E430B98310D814202D00198401C0190EB
:101820002088000502D57149794402E06F49794466
:1018300019396B460A9830221A540A980A7C401CBF
:101840001A54401C0A900198002801DC302000E066
:1018500031201872019A0120002A02D0644BD2185C
:1018600004E072003A4302D0614A521C0192002DFA
:1018700002DC2278120703D56A462E20507202201D
:101880000022864694460CE032033601120F6D1E8C
:101890008B5C02AA13546246521C401C9446052AD3
:1018A00001DA002DF0DC002202AE08E03B0F3F0120
:1018B000CB5C521C6D1E3354401C082A01DA002DEB
:1018C000F4DC23689A0601D511E0401E704504DD62
:1018D0003218203AD27F302AF7D0002807DD32189C
:1018E000203AD27F2E2A02D11A0700D4401E002DA2
:1018F00003DD3E223254401C6D1E497C3154019957
:10190000401C002906DA2D21471C31540198404221
:10191000019003E02B21471C315401987D21C9001F
:10192000884206DBFEF78CFD3030F0557F1C0191BC
:1019300001E0642808DB01986421FEF781FD303066
:10194000F0557F1C019101E00A2806DB01980A216D
:10195000FEF776FD3030F0557F1C01980A21FEF726
:101960006FFD3031F1550A98A1697F1C7A19101862
:10197000081AA0612078C00602D42046FEF79FFF17
:10198000216A6E460A980818206204E0626830787E
:10199000A168761C90470A98401E0A90401CF5D119
:1019A0002078C00602D52046FEF789FF02AE09E086
:1019B0003078761C3E280DD06268A1689047206A76
:1019C000401C20627F1EF3D22046FEF78EFF0DB032
:1019D0000320F0BD206A4019206203E06268A1681C
:1019E000302090476D1EEDD3F8E7000094530000BF
:1019F00001FCFFFF10B54369002B02D0C046C04672
:101A000001E0FEF795FF012010BD12780146243158
:101A10000A7000224A700122ECE711680022D243CA
:101A2000E8E710B54369002B02D0C046C04601E08C
:101A3000FFF712F8012010BD12880146243182847C
:101A40000022C2840122ECE711680022D243E8E7B9
:101A5000F8B516460C46054600F000F90368FF206D
:101A60000230C05C012807D0FF2C0FD8185D002879
:101A70000CD001202C70F8BDFF33324621460833CC
:101A80001868C71828460023B847F8BD0020C0438F
:101A9000F8BD01468008081A02091018020A101839
:101AA000020C1018C008820012185200891A01E0B6
:101AB000401C0A390A29FBD27047CA0212D54803D2
:101AC000400F002804D0C803C0430121884070475C
:101AD000EFF300800001000903210907084380F3A8
:101AE0000088704700040840FBD0012070470000C8
:101AF00038B5FF231B0644009C421DD84C009C4275
:101B00001AD80346124A0B4307D4401A02D3EFF304
:101B1000008038BDEFF3008038BD081A03D3EFF31F
:101B20000080904305E0EFF3008001219043C90756
:101B3000084380F3008838BD0D231B04134004D0F4
:101B400000920A46FFF766F938BDFFF735FA38BD4F
:101B50000000009068B5450205D40125AD05284375
:101B60002D12294308E00D464F263540482D03D05D
:101B70000A4600F007F868BD00912146FFF74AF9D0
:101B800068BD000010B50C461107090F092904D0E3
:101B90000A2925D0082927D104E011460820FFF79B
:101BA0008CFF21E0510621D5D10302D5002001464A
:101BB00010BD110601D5E10F00E0C10F900603D55D
:101BC0000020C043044606E0D00603D50020C043F1
:101BD000440800E01048002906D0C043E44303E075
:101BE000510601D50120C007214610BDD10607D5F9
:101BF00001010909CC084907000E0006044309E069
:101C0000410F20024907000A0143200E00061D2251
:101C1000D14101430846E7E7FFFFFF7F7546FFF725
:101C20001FFBAE46050069465346C008C000854606
:101C300018B020B5FEF74EFB60BCB6460026002764
:101C4000C0C5C0C5C0C5C0C5C0C5C0C5C0C5C0C56C
:101C5000403D490849008D467047000010B500F02E
:101C600005F8001D10BD00BF054900000048704781
:101C700028000020F8B51F46044601230068DB0257
:101C8000032601461840072A05DB002801D017A5C6
:101C900006E017A504E0002801D016A500E016A56F
:101CA000102081432160A069C01E002FA06101D0D7
:101CB000401EA0612046FEF702FE002F09D03846E4
:101CC0006268A1689047206A401C2062C01C2062A4
:101CD00006E0206AFAE762682878A1686D1C9047E0
:101CE000761EF8D22046FEF700FEF8BD4E414E00AB
:101CF0006E616E00494E4600696E6600FFB504468F
:101D0000CD23FFB09B00C4B06B44CC9925CB009190
:101D100004A90190029203AA05A800F003FAD09941
:101D2000034604980029844608D05D196D1C012DD6
:101D300004DA0121491B0818CB1801250022D243DF
:101D400002941DE0401E604501D3002608E0039F79
:101D500086087600BE5B87073F0FFE403607360FCA
:101D60006D1E092E0EDA002A02DB30322270641C4E
:101D70003922002903DD491E2270641CF9E732462E
:101D8000002100E0491C002801D0002DDADC0125EB
:101D9000AE46D19D022D08D0012D08D0002814D0C8
:101DA000401E604505D300260CE0002522E00225F8
:101DB00020E0039E85086D00755B8607360FF540B1
:101DC0002E07360F052E01DB02E00026002508E075
:101DD000052E03DC002901DCD50701D0012500E038
:101DE0000225002E01D00026B646022D02D07646EE
:101DF000002E21D000260096039E019612E0401E80
:101E0000604501D3002608E086087700019EF65B56
:101E100087073F0FFE403607360F002E02D0012005
:101E2000009004E00028EAD10098002801D00020AA
:101E30008646022D00D1009D012D0BD0501C02D0F2
:101E400030322270641C3920002918DD491E2070B0
:101E5000641CF9E7501C03D031322270641C07E087
:101E600031202070D0985B1C641C002800D1491ED2
:101E70003020002903DD491E2070641CF9E7C49856
:101E800003607046C599086002987FB048B0201A78
:101E9000F0BD10B50446C046C0462046FEF7EAF93C
:101EA00010BD10B500F0BCF900F0B4F910BD000091
:101EB00070B505460648014005400C46FEF7F0FCAB
:101EC00002681346AB4363400360104670BD0000D8
:101ED0009F9FC009CC4A810B5143020F400F490B11
:101EE000511808187047FFB50746002583B02E46E5
:101EF0002FE00499002072000446895A029122E0E2
:101F00008C4203D206996200895A00E00021029AAD
:101F10004A43101816D03119002202E06B006D1CE4
:101F2000FA528D42FAD949000191795A0918009163
:101F30000846FFF7CFFFB54902464A4300998A1A7F
:101F400001997A52641C0C998C42D9D30028D7D1BC
:101F5000761C05988642CCD3284607B0F0BDFFB565
:101F600089B06B4600259A83039102900C99012356
:101F70001C460193002915D008462021030C01D0EE
:101F800018461021030A01D018460839030901D068
:101F90001846091F830801D01846891E43080AD035
:101FA000891E09E004801498002801D000210160F6
:101FB00001200DB0F0BD091A1F20411A06910C999D
:101FC00002AB480848408108414008094840010ADE
:101FD0004140080C48400699C007C00F4840012105
:101FE0000C468443A0001B581A8004AA115064E0D8
:101FF000A10004AE012372581C1B02A80092415894
:10200000A700C0590B46FFF76EFFF05106996D000F
:10201000012088400C9908420DD00198A1000123AD
:102020001C1B009002A87258A7004158C05907AB6A
:10203000FFF759FFF051129800283ED0A0001399E5
:1020400084463058884238D9421A1298002821DD37
:10205000664602AB00209B598646014613E04E00BF
:102060009E5B30180ED06A4E0090704301263603F6
:10207000801B664E400F07467743009EB74201D053
:102080000126B646491C9142E9D3510070445E5A7C
:1020900030185852002002AF07E06146831846000E
:1020A00079585B00401CCB5A8B5313998842F4D368
:1020B0000B46614604A8AD1843500698401E069092
:1020C00096D51498002800D00560A10004A84058B7
:1020D0006FE7F3B5002081B0054604461BE08C4253
:1020E00003D201996200895A081800273E460A2146
:1020F000FEF79CF9AA070B46120F93403B436D1C59
:102100009FB2002900D00095761C042EEFD30199D0
:102110006200641C8F5202998C42E0D30028DED109
:102120000098FEBDFFB5052689B030E0042E0DDA1B
:1021300069462246012001AB4003888001200090BF
:1021400003A906A8FFF7CFFE074600E000273246A6
:102150000D2013994243129800F002F9C504ED0CCA
:10216000002410E0BC4203D2610006A8405A451981
:102170002846FFF7AFFE2549630003AA4143691AC9
:102180000546641CD152BC42ECD3002DEAD1304646
:10219000761E0028CADC099E14990025FF362846C1
:1021A0007B36002909DD0B46099902220090019037
:1021B00002903046FFF7D3FE12E000290ADA4B42C4
:1021C000099905220090019002903046FFF7C7FE62
:1021D000149D05E009980121FF30413041870846F0
:1021E000334622460090099803A9FFF77CFE0B9A1C
:1021F0000146099810600998FFF76BFF0A996D1E58
:1022000008604019D5E600006D340000102700007A
:10221000B8D1000010B5002801D000F09BF810BD27
:1022200010B5022803D0410103D50DA112E0002012
:1022300010BD010101D50FA10CE0C10001D511A114
:1022400008E0810001D512A104E0400001D513A1EE
:1022500000E0002115A000F094F8012010BD00005E
:10226000496E76616C6964204F7065726174696F44
:102270006E000000446976696465204279205A65E1
:10228000726F00004F766572666C6F770000000019
:10229000556E646572666C6F77000000496E6578F4
:1022A00061637420526573756C740000534947462E
:1022B00050453A2041726974686D657469632065A0
:1022C0007863657074696F6E3A200000024670B5DD
:1022D0000A4392072AD11E4DEE0104C808C9541BB7
:1022E0009443344017D0D0B2D9B2401A21060143EA
:1022F00010D190B299B2401A210401430AD11002C0
:102300001902000A090A401A2102014302D1100EE3
:10231000190E401A70BD9A42DFD010BA19BA88421D
:1023200001D9012070BD0020C04370BD02780B7838
:10233000401C491C002A09D09A4207D102780B7828
:10234000401C491C002A01D09A42EFD0D01A70BD1F
:102350000101010101491820ABBEFEE72600020081
:1023600010B5202A04DB0846203AD040002110BDD9
:102370000B462024D340D040A21A9140084319466E
:1023800010BD70B505460C460A2000E06D1C00F03B
:1023900018F8002D06D028780028F7D102E0641C38
:1023A00000F00FF8002C02D020780028F7D10A2086
:1023B00000F007F870BD10B5FEF772FA0021016059
:1023C00010BD08B5694608700320ABBE08BD704754
:1023D00080B582B03848012100F065F9002814D09A
:1023E000FFE735480121019100F0A7F801980A495B
:1023F00048704868401C486000F02EFA074801F019
:10240000B1FA074800F06CFC04E02B487F2100F093
:1024100094F8FFE702B080BD10050020BC04002046
:102420004C06002080B58EB006A8019000F0F4F9AB
:102430000199012205920A8000200490488088803A
:10244000C880088148818881C8810A8205224A8221
:102450008882C88248838883C8831748029000F026
:1024600043F902987F2100F068F80298049A059BCE
:10247000114600F025F80298059B19461A4600F00F
:102480001FF80298059B0222114600F019F80298E5
:10249000049B03210422039200F012F8029803998E
:1024A000049B0B2200F00CF8059A04490868D2023C
:1024B000104308600EB080BD000401407404014068
:1024C00010B586B0059004A8017003A8027002A898
:1024D0000370007801280AD1FFE702A8027804A857
:1024E000007882400599486E10434866FFE704ABC8
:1024F0001878800801AA1070107803210840107025
:1025000018780840187004988000187005981178A1
:1025100089004018006D1C780F21A140884300906D
:10252000009803A909781B78994008430599127807
:1025300092008918086506B010BD82B00190684607
:102540000180008801999422885002B0704783B0BE
:102550000190684601700078002805D1FFE70198D6
:10256000006802A9088099E068460078012805D132
:10257000FFE70198406802A908808FE0684600786C
:10258000022805D1FFE70198806802A9088085E04C
:1025900068460078032805D1FFE70198C06802A9C2
:1025A00008807BE068460078042805D1FFE70198A1
:1025B000006902A9088071E068460078052805D105
:1025C000FFE70198406902A9088067E06846007843
:1025D000062805D1FFE70198806902A908805DE01F
:1025E00068460078072805D1FFE70198C06902A96D
:1025F000088053E068460078082805D1FFE7019875
:10260000006A02A9088049E068460078092805D1D7
:10261000FFE70198406A02A908803FE06846007819
:102620000A2805D1FFE70198806A02A9088035E0F1
:10263000684600780B2805D1FFE70198C06A02A917
:1026400008802BE0684600780C2805D1FFE7019848
:10265000006B02A9088021E0684600780D2805D1AA
:10266000FFE70198406B02A9088017E068460078F0
:102670000E2805D1FFE70198806B02A908800DE0C4
:10268000684600780F2805D1FFE70198C06B02A9C2
:10269000088003E002A900200880FFE7002102A8CB
:1026A000405E03B0704784B00091014600980391EA
:1026B00002A9088001AA0020107003989422805873
:1026C00009880840039990228958084204D0FFE7FE
:1026D00001A90120087003E001A900200870FFE7AC
:1026E00001A8007804B0704780B582B001900091D5
:1026F0000121084602F090FC0099088849880843A7
:102700000199902288500099C88A00028A8A120191
:102710001043498A08430199086600998888000394
:10272000CA88920210430A89120210434A89120190
:1027300010438A89D2001043C98908430199486728
:102740000098408B0199C42288500098808B019991
:10275000C82288500098C08B0199CC228850A120B3
:10276000400102F0D9FA15490860154802F0D4FA80
:1027700014490860144802F0CFFA1449086014485C
:1027800002F0CAFA13490860134802F0C5FA134967
:102790000860134802F0C0FA12490860124802F0BB
:1027A000BBFA12490860124802F0B6FA11490860F3
:1027B0000098008A0199886702B080BD80040140BA
:1027C00024140000840401402814000088040140FF
:1027D0002C1400008C0401403014000080050140DE
:1027E00034140000840501403814000088050140BD
:1027F0003C1400008C05014082B0019068460170D5
:102800000078012804D1FFE701990248C867FFE773
:1028100002B07047A55A000081B0009000990020D6
:10282000088000994880009988800099C8800099A4
:10283000088100994881009988810099C881009990
:102840000882009A01215182009A9182009AD182D5
:102850000099088301B0704710B58EB05E480290B1
:1028600000210391FFF773FE014602985B4A05922F
:1028700011800121FFF76BFE059A014602985180F5
:1028800002210491FFF763FE0399024605988280B6
:10289000405E534A08921821515E401AC117126ACD
:1028A000D317FDF72BFD089A034605980C460499AB
:1028B00024031B0D1B199380405E1A21515E401AA0
:1028C000C117526AD317FDF719FD089A03460598F8
:1028D00006930B4606991B03090DC918D1800421E4
:1028E0000791405E1C21515E401AC117926AD317AE
:1028F000FDF704FD024608980B4607991B03120DCD
:10290000D2180281405E03F01DF9014608980BAA17
:1029100011800621405E03F015F9014608980CAAC3
:10292000099211800821405E03F00CF901460998D4
:102930000DAA11800B9A0AA90A800088098888428A
:1029400004DDFFE70C980AA90880FFE70DA80088BE
:102950000AA90988884204DDFFE70D980AA90880C2
:10296000FFE70AA800881F4988421CDBFFE7D84917
:102970007822012088540AA800887D218901884294
:1029800010DBFFE70020009002F04EF901200190DB
:102990008103154800F030FC009A019810498A73B1
:1029A0000874FFE704E0CA49782200208854FFE752
:1029B0000AA800880A490A22895E884204DDFFE7E6
:1029C0000A9807494881FFE70AA80088FDF762FFD7
:1029D000064908610EB010BD000401407E000020D1
:1029E0009004002070170000C00D0140E006002098
:1029F000F0B587B003910290039804ACA0800298D0
:102A000004900023069301AE33806A461380049934
:102A100006A80180E75E0B490D467D43ED0B35802E
:102A20000225645F6143C90B11800199D25E891848
:102A3000891849424180018840880004401807B045
:102A4000F0BDC046E649000080B582B00949019159
:102A5000094808600120C00308490860642002F0AA
:102A60001FFB0199064A074810600020086002B069
:102A700080BDC046A8000040837A000024000040CA
:102A800080000040FF01000080B582B0014601A82F
:102A900001800021415E0E4848438F49FDF7D0FC7C
:102AA000009000980121C903884203DBFFE7084832
:102AB000009008E000980749884203DCFFE70648D9
:102AC0000090FFE7FFE700216846405E02B080BD4E
:102AD000FF7F0000FF7FFFFF0080FFFF80B503F056
:102AE00065FA80BD82B0019000910098002806D060
:102AF000FFE70199086801221043086005E0019989
:102B00000868012290430860FFE702B070470000A8
:102B100081B0009000980E49086001B07047C0462F
:102B2000494901200860704782B000900848006859
:102B30000099084043490968084203D0FFE7012093
:102B4000019002E000200190FFE7019802B0704779
:102B50008812014080B584B003900291FFF7E0FF36
:102B6000039900200860FFE70298007A03998860C3
:102B7000FFE7039880680299097A8842F4D1FFE759
:102B80000298C0680399C8600298006903990861B7
:102B900002984069039948600299487880028A78CF
:102BA00012021043CA78920110430A7912011043AD
:102BB0004A79D20010438A7952001043C9790843F8
:102BC000039908600298007800282ED0FFE7039848
:102BD0000190184988420FD0FFE7019816498842B2
:102BE00010D0FFE701981549884211D0FFE70198FE
:102BF0001349884212D017E0124908680122104395
:102C0000086011E00F4908680222104308600BE0D9
:102C10000C49086804221043086005E00949086867
:102C2000082210430860FFE7FFE70749012008601A
:102C300004B080BD0012014020120140401201404A
:102C400060120140841201408012014081B0009066
:102C50000099002048610861C86088604860086089
:102C600001B0704780B50121480402F0F1F980BD40
:102C7000F0B581B01648014618317D2214010C854B
:102C800008264E8564278F85CE85124D0D86124A03
:102C90004A86124BC36402650021009141655C21A4
:102CA0004452009904465C346680A780E680258102
:102CB00062818366C26601670175022141707823D3
:102CC0000122C254C160016101F000F801B0F0BD01
:102CD0004C060020F0D8000010270000F0D8FFFFBD
:102CE00010B592B01190119818301090109800F013
:102CF000A3FB7B48008E0FA90591088010980490D3
:102D000081880CAA918000680C900D990C98FFF7AF
:102D10006FFE049A034605980EA90B801B0C4B808E
:102D2000498811810E99D180109A06920021415E46
:102D3000D38810890004C01801F0A4FF0699024648
:102D40000BA80280120C4280408888810B98488131
:102D500010980A21405EFDF795FD624907910860D1
:102D600010980C21405EFDF78DFD07994860109882
:102D70006121405C022815DCFFE710996122885C24
:102D8000401C8854109900200880109948801099A0
:102D900088801099488110998881109988821099AB
:102DA00048827FE010981021405EFFF76DFE09A970
:102DB0000391088010980E21405EFFF765FE0146E2
:102DC00003980AAA11800021405EFDF75BFD45498A
:102DD000886045484549405C002828D1FFE700212C
:102DE00009A8405E4049424A895E401A002809D439
:102DF000FFE7002109A8405E3B493D4A895E401A31
:102E0000029008E0002109A8415E3748384A805EF8
:102E1000401A0290FFE70298652808DBFFE7324975
:102E2000324A01208854820200208852FFE7099923
:102E30002D482F4A81522D49405C00281ED0FFE7C3
:102E4000099A29480124A102435A5B00C252109AF0
:102E50009289435A5B00C31864021A53425A521CA7
:102E60004252405AFF2808DDFFE71F491F4A002051
:102E70008854204901200870FFE7FFE7002109A8D6
:102E8000405E10990C22895E109A443201F041FE96
:102E90001099888210981421405EFDF7F3FC1149C7
:102EA000C860FFE7119801F05DFF109901914A8A0F
:102EB000888A0004801801F09BFF0199024608A847
:102EC0000280120C4280408808830898C8821198BA
:102ED00001F0C8FF109800F033FF12B010BDC046DB
:102EE000BC040020E006002088000020020400004E
:102EF000040400000C05002080B584B0039002910A
:102F00000121C80202F0A4F8029840680190032849
:102F100033D80198810001A0405887462D2F00002A
:102F2000472F00007D2F0000612F000002980268EB
:102F300003994868904348600298026803990868BA
:102F40001043086027E0029802680399486810431C
:102F500048600298026803990868904308601AE084
:102F60000298026803994868104348600298026812
:102F700003990868104308600DE0FFE702980268B3
:102F8000039948689043486002980268039908686A
:102F900090430860FFE702988068002807D0FFE7A9
:102FA00002980268039908691043086106E00298D4
:102FB00002680399086990430861FFE70298C068B6
:102FC000002807D0FFE70298026803998869104338
:102FD000886106E0029802680399886990438861D5
:102FE000FFE702980069002807D0FFE7029802680F
:102FF0000399C8691043C86106E002980268039902
:10300000C8699043C861FFE704B080BD85B00490F3
:1030100003910292039800900F2800D9E0E00098F5
:10302000810001A040588746693000007F300000D1
:1030300097300000AF300000C7300000DD300000E6
:10304000F53000000D310000253100003B3100005B
:10305000533100006B3100008331000099310000D2
:10306000B1310000C93100000498006A614908408C
:10307000019001980299401804990862B1E00498FF
:10308000006A5B49084001900198029909014018C3
:1030900004990862A5E00498006A54490840019028
:1030A00001980299090240180499086299E004986D
:1030B000006A4D490840019001980299090340189F
:1030C000049908628DE00498406A4A4908400190DA
:1030D0000198029940180499486282E00498406A75
:1030E0004349084001900198029909014018049948
:1030F000486276E00498406A3C4908400190019893
:10310000029909024018049948626AE00498406AEA
:103110003549084001900198029909034018049923
:1031200048625EE00498806A324908400190019844
:10313000029940180499886253E00498806A2C49E7
:103140000840019001980299090140180499886289
:1031500047E00498806A2549084001900198029947
:1031600009024018049988623BE00498806A1E496D
:103170000840019001980299090340180499886257
:103180002FE00498C06A1B490840019001980299F9
:1031900040180499C86224E00498C06A14490840A1
:1031A000019001980299090140180499C86218E039
:1031B0000498C06A0D4908400190019802990902DB
:1031C00040180499C8620CE00498C06A0649084097
:1031D000019001980299090340180499C86200E01F
:1031E000FFE705B07047C046FF0F0000FFF000008A
:1031F0000FFF0000F0FF000082B0019068460180E0
:1032000000880199486302B0704782B00190684617
:10321000018000880199086302B0704781B0009076
:103220000099002008600099486000998860009922
:10323000C8600099086101B07047000080B594B083
:103240000FA80E90FFF7EAFF7648019004210A913B
:1032500003220092FFF7DAFE009A019805210991F6
:10326000FFF7D4FE009A01980621FFF7CFFE009ADF
:10327000019807210691FFF7C9FE009A01980821DD
:10328000FFF7C4FE009A01980921FFF7BFFE0198DD
:103290000E9901220C9210923F2212010F92FFF719
:1032A0002BFE0E98FFF7BAFF0C980E991090800233
:1032B00002900F9000200B9011905B480D90FFF74B
:1032C0001BFE02990D98FFF797FF0E98FFF7A6FFD8
:1032D0000B9A0C9B0D980E9910935B0203930F931E
:1032E0001192FFF709FE03990D98FFF785FF0E98DD
:1032F000FFF794FF0B980C9A0E9910929203049288
:103300000F92119049480590FFF7F6FD0499059832
:10331000FFF772FF0B990E98694A9173FFF77EFFD2
:1033200005980B9A0E991092414A0F92FFF7E4FD0F
:103330000E98FFF773FF06980B9A0E991092C00231
:103340000F903C480890FFF7D7FD08980B21022208
:103350000792FFF75BFE079A08980C21FFF756FECD
:10336000079A08980D21FFF751FE0E98FFF756FFB8
:103370000B9A0D980E99109280220F92FFF7BCFDC8
:103380000E98FFF74BFF08980C9A0E991092402365
:103390000F931192FFF7B0FD0E98FFF73FFF0898CB
:1033A0000B9A0E99109238220F92FFF7A5FD0E98F6
:1033B000FFF734FF08980B9B0C9A0E9910930F920D
:1033C000FFF79AFD0E98FFF729FF0B9A0D980E99BB
:1033D000109210220F92FFF78FFD0E98FFF71EFF3D
:1033E0000C9A0D980E99109220220F92FFF784FDEF
:1033F00009990A9A0D98FFF709FE0A9A0D98114645
:10340000FFF704FE0E98FFF709FF0B9B0C9A0D982F
:103410000E991092119312030F92FFF76DFD14B0E5
:1034200080BDC046400D0140800D0140C00D0140EF
:10343000A30C0000000D014080B588B00790204922
:103440000A8906A800900280CA8805AB01931A80F9
:10345000898804AA0392118000210291415E1948D3
:1034600002F056FC009B0299024601981A80415EC8
:10347000154802F04DFC019B0299024603981A8000
:10348000415E124802F044FC0299039B02460098F8
:103490001A80405EFFF7F8FA029902460198079BEE
:1034A0001A80405EFFF7F0FA029902460398079BE4
:1034B0005A80405EFFF7E8FA0799888008B080BD1F
:1034C00090040020340600203C0600204406002022
:1034D00080B5024800F03CF980BDC046BC04002025
:1034E00082B0019027490868019A10400090009826
:1034F000086002B07047C04680B582B0014601A89E
:1035000001700178082001F0A3FD02B080BD000029
:103510001C4800684005400F7047C04619480068C5
:10352000072108407047C04681B0009015480068E8
:103530000099084001B0704781B0009000998888D8
:103540008A7912048018CA79120510430A7A120681
:1035500010434A7A120710438A7A52071043C97AF5
:103560008907084305490860009800680449086015
:1035700004490020086001B07047C04600030140C4
:103580000C0301400403014081B0009000990B48F6
:103590008880009900208871009A0121D171009AD9
:1035A0001172009A517200998872009A7D21C900A7
:1035B00011600099C87201B07047C046FF03000057
:1035C00080B586B003A80190FFF7DEFF01980122C5
:1035D00002921103818000218171C17102724272D5
:1035E0008272054A0392C172FFF7A6FF0298FFF7A5
:1035F00083FF06B080BDC04600D8B80582B001AADE
:103600001080009101980099401880B202B0704774
:1036100082B001900199002088600199C8600199E9
:10362000886201992C22885401992D228854694678
:103630000870FFE76846007805280DDCFFE7019871
:10364000694609788900411800200861FFE7009861
:10365000401C69460870EDE702B0704780B584B041
:10366000024602A8027001AA1170007800280CD04E
:10367000FFE701A80078002807D0FFE702A800783C
:1036800001A90978884204D1FFE703A90020087046
:1036900021E002A800780621FCF7C8FE481C01A919
:1036A0000978884204D1FFE703A90220087012E0DC
:1036B00001A800780621FCF7B9FE481C02A9097888
:1036C000884204D1FFE703A90120087003E003A9A1
:1036D00000200870FFE703A8007804B080BD82B026
:1036E000009000980079022805D0FFE70098007943
:1036F000012805D1FFE70098007901A9087003E0CF
:1037000001A902200870FFE701A8007802B0704705
:1037100081B00146684601700178072001400248E7
:10372000405C01B07047C046326F000080B582B087
:1037300001900199002088710199C8860199C86398
:10374000019908640198FFF763FF02B080BD000093
:1037500080B58CB00B9001200004FFF7E5FE002837
:1037600000D1A8E001200004FFF7BAFEFFF7D6FE63
:1037700001460720059001400AA801700078FFF774
:10378000C7FF09A906910870534800680790FFF722
:10379000BFFE059A0146069811400B9A51700078B9
:1037A000002837D1FFE70B9800780B9988700A98AA
:1037B0000B9908700B99002048710B994A220392CB
:1037C000885A401C88520B98FFF7B0FF03990B985A
:1037D000405A0490012804D0FFE70498022808D03A
:1037E0000FE00B9880780B9908700B9900204871B6
:1037F0000FE00B9880780B9908700B9900204871A6
:1038000007E00B994C22012088520B98FFF78EFF9E
:1038100060E05FE00B984079002806D1FFE70B9845
:10382000FFF75DFF0B99087117E00B98C07809A9A5
:103830000978FFF713FF014608A8017000780028F7
:1038400006D1FFE70B994A22885A401C885203E0B0
:1038500008980B990871FFE7FFE70B9800780B9920
:1038600088700A980B99087009980B99C8700B9981
:10387000012048710798002810D0FFE707980B999E
:1038800088600B98079900F029F80B99C8600B998C
:10389000012088710B9800F04BF9FFE70B9802901C
:1038A0000AA909780191FFF71AFF019902460298C7
:1038B00000F0BCF8FFE701204004FFF735FE0028C8
:1038C00008D0FFE701204004FFF70AFE0B98FFF73E
:1038D0002DFFFFE70CB080BD0803014080B584B028
:1038E0000390029103982C21405C01A90870039871
:1038F0002D21405C052806DCFFE703992D22885C1A
:10390000401C88540AE0039801A9097889004018EE
:1039100002690399886A801A8862FFE70299039A0C
:1039200001A803789B00D2181161029B039A916A47
:10393000C91891620199491C01700078062804DBBE
:10394000FFE701A900200870FFE7019803992C22E6
:1039500088540398806A03992D22895CFCF766FDE0
:1039600004B080BD80B582B00190019840790028F4
:1039700004D1FFE7019800F0A5F824E001988079D0
:10398000002805D0FFE70198C08E002804D1FFE78A
:10399000019800F01BF816E00198808E0199C98EFD
:1039A00041186846018000888649884204DBFFE7A9
:1039B000694684480880FFE7009801998886019845
:1039C00000F004F8FFE702B080BDC04680B584B0C7
:1039D00003900398FFF783FE014601A80170007869
:1039E00001280BD1FFE70398408E0399898E401A76
:1039F0000399098F401802A908800AE00398408EB5
:103A00000399898E40180399098F401802A90880EC
:103A1000FFE702980399088602A800880399496C79
:103A2000FFF7ECFD0399C88504B080BD80B584B074
:103A3000039002A8017001A802700078012809D142
:103A4000FFE702A800784007010F1C48405A03997D
:103A5000488608E002A800784007010F1648405A3F
:103A600003994886FFE703988079002812D0FFE782
:103A70000398C08E002804D4FFE70398C08E0090FE
:103A800004E00398C08E40420090FFE700980A28A7
:103A900009DCFFE702A800784007010F0848405AF8
:103AA00003994886FFE70399002088860398FFF76B
:103AB0008DFF04B080BDC046226F0000126F000071
:103AC000026F000080B584B00390FFF727FD014628
:103AD0000720014002A801700078FFF719FE014697
:103AE00001A801700078002801D1FFE71DE00298CD
:103AF00003990870FFF70CFD0721084003994870EF
:103B000002980399887001980399C8700398FFF789
:103B1000E6FD03990871039901204871039802A9F1
:103B200009780279FFF782FFFFE704B080BD00004B
:103B300080B586B005900598C068002808D1FFE7D9
:103B400005990020C8860599C8630599086433E083
:103B50000598C1681948FCF769FC0599C88605985D
:103B6000C08E1749884204DBFFE705991548C886CF
:103B7000FFE70598C1681448FCF758FC04900598C5
:103B8000FFF7ADFD014602A801700078012803D1BE
:103B9000FFE70498019003E0049840420190FFE79A
:103BA0000198039003980599C86303980521FCF7D1
:103BB00047FC05990864FFE706B080BD00080004D3
:103BC000AC2A0000AB2A00000070383980B582B002
:103BD0000849094808600020019001F025F80120FB
:103BE00081030648FFF708FB01980549887301F037
:103BF0009BFFC046C00C0140ADDE0000C00D01407F
:103C00009004002080B588B072B62A492A4808601E
:103C100000F054F8012251040868D20410430860EF
:103C2000FFF720F8FEF7FEFB00F09EFC01F0FEFE21
:103C3000FFF704FB02F090F901F0D8FE00F042FF1C
:103C4000FFF7BEFC642001F02BFA0B200190042149
:103C500001F028FF019801F00FFF092002900221D6
:103C6000049101F01FFF029801F006FF0E2003905F
:103C70000021059101F016FF039801F0FDFE049963
:103C8000059801F00FFF059801F0F6FE0599102048
:103C9000069001F007FF069801F0EEFE1220079053
:103CA00001F0EAFE0798032101F0FCFE62B608B0BD
:103CB00080BDC046A8000040837A00000F2080022B
:103CC000014908607047C0460417014081B0009068
:103CD000094900220A600948888009490A608880E9
:103CE00008490A60888008490A60084888800849AD
:103CF0000A60888001B0704734060020CA62000064
:103D00003C06002044060020D00600208813000056
:103D1000C806002080B582B001200105002000F017
:103D20005DF800280AD0FFE70020019000F07CFF3A
:103D300001980121090500F031F8FFE702B080BDCC
:103D400081B0009000981A21405E40420D4A1060F8
:103D50000098405E0C49086000981C21405E40427B
:103D60000A4A10600098405E0949086000981E21C8
:103D7000405E4042074A10600098405E0649086075
:103D800001B07047000C0140040C0140080C0140D8
:103D90000C0C0140100C0140140C014082B001AA2F
:103DA0001070009100980121890388420ED8FFE726
:103DB00001A80078002804D1FFE700983249086084
:103DC00003E000982E490860FFE704E00098C00B6C
:103DD00029490860FFE702B07047C04683B002AAD5
:103DE0001070019169460020087001980121890333
:103DF00088422AD8FFE702A80078002812D1FFE7FE
:103E0000214800680199084020490968084204D007
:103E1000FFE769460120087003E06946002008704A
:103E2000FFE711E016480068019908401549096844
:103E3000084204D0FFE769460120087003E06946A4
:103E400000200870FFE7FFE712E00B4800680199C7
:103E5000C90B084009490968084204D0FFE76946D0
:103E60000120087003E0694600200870FFE7FFE7C3
:103E70006846007803B07047940C0140900C0140F4
:103E80008C0C0140880C0140840C0140800C0140E6
:103E900010B582B001900121880201F0D9F8FB49E8
:103EA000FB480860019A2620105C2523D35C9B0008
:103EB00018432423D35CDB0018432323D35C1B016A
:103EC00018432223D35C5B011843D37F9B01184323
:103ED000937FDB0118432123D35C1B02184320236B
:103EE000D35C5B021843537F9B021843127FD202BC
:103EF0001043E84A10600198808EE74A10600198EC
:103F0000C08EE64A10600198008FE54A1060019863
:103F1000408FE44A106001980088E34A10600198DD
:103F20004088E24A1060019A7220105C7323D35CCF
:103F30001B0118437423D35C5B0118437523D35CC6
:103F40009B0118437623D35C1B0218437723D35C71
:103F50001B0318437823D35C5B0318437923D25C9B
:103F600092031043D24A10600198808FD14A1060AA
:103F70000198C08FD04A106001984022805ACF4AE1
:103F8000106001984222805ACD4A1060CD4ACE4836
:103F90001060019BA2229A5CA3241C5D6400224352
:103FA000A8241C5DA4002243A9241C5DE400224334
:103FB000AA241C5D24012243AB241C5D640122431E
:103FC000AC241C5DA4012243AD241C5DE40122430A
:103FD000A4241C5DA4022243A5241C5DE402224308
:103FE000A6241C5D24032243A7241C5D64032243F2
:103FF000AE241B5D9B031A43B44B1A60019BAF2296
:104000009A5CB0241C5D64002243B5241C5DA400AE
:104010002243B6241C5DE4002243B7241C5D240126
:104020002243B8241C5D64012243B9241C5DA40111
:104030002243BA241C5DE4012243B1241C5DA40286
:104040002243B2241C5DE4022243B3241C5D2403FA
:104050002243B4241C5D64032243BB241B5D9B03E9
:104060001A439B4B1A60019BBC229A5C1201BD242F
:104070001C5D64012243BE241C5DA4012243BF24B5
:104080001C5DE4012243C1241C5D24022243C2249E
:104090001B5D5B021A438F4B1A60019A4423D25A6C
:1040A0008D4B1A60019A4623D25A8C4B1A60019AA2
:1040B000C023D25C8A4B1A60019BD8229A5CD72419
:1040C0001C5D64002243D6241C5DA4002243D52439
:1040D0001C5DE4002243D4241C5D24012243D3242C
:1040E0001C5D64012243D2241C5DA4012243D1241F
:1040F0001C5DE4012243D0241C5D24022243CF2412
:104100001C5D64022243CE241C5DA4022243CD2404
:104110001C5DE4022243CC241C5D24032243CB24F7
:104120001C5D64032243CA241C5DA4032243C924EA
:104130001B5DDB031A43F04B1A60019BC3229A5CA0
:10414000C4241C5D64002243C5241C5DA4002243DA
:10415000C6241C5DE4002243C7241C5D24012243C5
:10416000C8241B5D5B011A43E44B1A60019B482283
:104170009A5C49241C5D6400224361241C5DA400F8
:10418000224360241C5DE400224355241C5D24016D
:10419000224354241C5D640122436C241C5DA40151
:1041A00022431C8DE40122434A241C5D2402224345
:1041B0004B241C5D6402224363241C5DA402224341
:1041C00062241C5DE402224357241C5D2403224325
:1041D00056241C5D640322436D241C5DA40322430A
:1041E0005B8DDB031A43C64B1A60019B4C229A5C21
:1041F0004D241C5D6400224365241C5DA400224301
:1042000064241C5DE400224359241C5D24012243E4
:1042100058241C5D640122436E241C5DA4012243CA
:104220009C8DE40122434E241C5D240222434F2432
:104230001C5D6402224367241C5DA40222436624A1
:104240001C5DE40222435B241C5D240322435A24A8
:104250001C5D640322436F241C5DA4032243DB8D99
:10426000DB031A43A74B1A60019B50229A5C51242E
:104270001C5D6400224369241C5DA4002243682461
:104280001C5DE40022435D241C5D2BE0C00C01405A
:10429000ADDE00007C0C0140300C0140340C0140CC
:1042A000380C01403C0C0140400C0140440C0140E2
:1042B000740C0140600C0140640C0140680C01402A
:1042C0006C0C0140940C0140FFFF0000800C014089
:1042D000880C0140900C0140580C01405C0C0140DE
:1042E000700C0140240122435C241C5D64012243C4
:1042F00070241C5DA40122431C8EE401224352243D
:104300001C5D2402224353241C5D640222436B245F
:104310001C5DA40222436A241C5DE40222435F2444
:104320001C5D240322435E241C5D6403224371242C
:104330001C5DA40322435B8EDB031A43724B1A609D
:10434000019A9288714B1A60019AD288704B1A6058
:10435000019A12896F4B1A60019A52896E4B1A604A
:10436000019A92896D4B1A60019AD2896C4B1A603E
:10437000019A128A6B4B1A60019A528A6A4B1A6030
:10438000019A928A694B1A60019AD28A684B1A6024
:10439000019A128B674B1A60019A528B664B1A6016
:1043A000019B7F229A5C920080241C5DE4002243E2
:1043B0007A241C5D240122437B241C5D640122437A
:1043C00081241C5DE40122437D241C5D24022243E0
:1043D0007E241C5DA40222437C241B5DDB031A4364
:1043E000564B1A60019B87229A5C920088241C5DC0
:1043F000E400224382241C5D2401224383241C5DAB
:104400006401224389241C5DE401224385241C5D50
:104410002402224386241C5DA402224384241B5DC3
:10442000DB031A43464B1A60019B8B229A5C8A2459
:104430001C5D640022438D241C5DA40022438C2457
:104440001C5DE40022438F241C5D240122438E2442
:104450001C5D6401224391241C5DA401224390242D
:104460001C5DE401224393241C5D24022243922418
:104470001C5D6402224395241C5DA4022243942403
:104480001B5DDB021A432F4B1A60019B96229A5C3C
:1044900097241C5D6400224398241C5DA4002243E1
:1044A00099241C5DE40022439A241C5D24012243CC
:1044B0009B241C5D640122439C241C5DA4012243B7
:1044C0009D241C5DE40122439E241C5D24022243A2
:1044D0009F241C5D64022243A0241C5DA40222438D
:1044E000A1241B5DDB021A43174B1A60174A1060A8
:1044F0001748086002B010BD980C01409C0C0140A8
:10450000A00C0140A40C0140A80C0140000C01408B
:10451000040C0140080C01400C0C0140100C01403F
:10452000140C0140180C01401C0C0140200C0140EF
:10453000240C0140280C01402C0C0140B00C01401F
:10454000B40C0140B80C0140BC0C0140500C0140BF
:10455000FECA000080B582B001900198E421FBF70B
:1045600062FF02B080BD000080B5BAB001A8009023
:10457000FFF7F0FF0098032291020180262300211B
:10458000C154FD231B0283801202C2800381428139
:104590008381C28190228287C2870185418581857E
:1045A000304A8286304AC28625230122C254C2770D
:1045B00041772123C1542323C1542223C2544423CD
:1045C000C1527223C1547323C2547423C15475233E
:1045D000C154A223C154A323C154BB23C2544823B2
:1045E000C1544923C1544A23C1544B23C1544C23C1
:1045F000C1544D23C1546C23C1546D23C1546E2347
:10460000C1548A23C1548B23C1548C23C1548D239C
:10461000C1548E23C1548F23C1549623C25497236F
:10462000C2549823C2549923C2549A23C2549B2340
:10463000C2547A23C154BC23C1547D23C2547F2267
:1046400081547B228154BD2281547E228154802258
:104650008154812281547C228154FFF719FC3AB0A5
:1046600080BDC04628F40000FF0B000083B039482D
:10467000007D022868D1FFE736482621405E364992
:10468000884261DBFFE73648006C092857D8FFE70E
:104690009F480421405E002805D4FFE79C48042180
:1046A000405E029005E09A480421405E404202903C
:1046B000FFE702987D21490188422DD8FFE7944801
:1046C0000621405E002805D4FFE791480621405EA0
:1046D000019005E08E480621405E40420190FFE7D0
:1046E00001987D214901884216D8FFE788480821B2
:1046F000405E002805D4FFE785480821405E009011
:1047000005E083480821405E40420090FFE70098A2
:10471000144988420ED3FFE710484088312808DC4E
:10472000FFE70E494888401C488001200870487007
:10473000FFE703E0094900204880FFE703E007495D
:1047400000204880FFE703E0044900204880FFE79D
:1047500003B070474C06002088130000D8060020E4
:10476000BC040020A10F000080B59CB01BA90D91D6
:1047700000200E9008801A901990189000F054FABA
:10478000642000F08DFC72B65C4800F0C5FA17900A
:104790005B4800F0C1FA16905A4800F0BDFA159037
:1047A00017A8418814A80180179913AA02921180B2
:1047B00016A9498812AA04921180169911AA059285
:1047C000118015A9498810AA0792118015990FAA7E
:1047D000089211800088FCF755F801460298039171
:1047E0000088FCF74FF84849099101F0D5FE0146D1
:1047F0000398FBF7D5FE45490B9101F0BBFFFBF792
:10480000BFFF01460498424A0C9251820088FCF78F
:1048100039F80146059806910088FCF733F80999A4
:1048200001F0BAFE01460698FBF7BAFE0B9901F0BB
:10483000A1FFFBF7A5FF0C9A01460798918200881B
:10484000FCF720F8014608980A910088FCF71AF84E
:10485000099901F0A1FE01460A98FBF7A1FE0B9908
:1048600001F088FFFBF78CFF0C9B0D9902460E9818
:10487000DA820880FFE71BA800882649884230DCDE
:10488000FFE725480121FDF7B7FFFFE72248202178
:10489000FDF709FF002805D0FFE71F482021FDF79D
:1048A0004CFEF3E71C4801900021FDF750FE024644
:1048B00001981899891818910121FDF748FE0246C0
:1048C00001981999891819910221FDF740FE0146B6
:1048D0001A9840181A90FFE71B98401C1BA90880E3
:1048E000C9E71898400A0A4908831998400A48837A
:1048F0001A98400A888362B61CB080BD0815000073
:1049000018150000281500000000964300007A44A6
:1049100090040020FF0100000004014084B0024622
:1049200003A8027002915C4A5C4911605C49096805
:1049300001915C4909680091007800281DD1FFE7CA
:1049400002984068002804D1FFE757490120087009
:10495000FFE701980321884301900298416801987C
:1049600008430190009804218843009002988068D1
:1049700081000098084300906BE003A800780128AC
:104980001ED1FFE702984068002804D1FFE746499E
:1049900001200870FFE701980C21884301900298DC
:1049A00040688100019808430190009808218843DD
:1049B000009002988068C10000980843009047E08A
:1049C00003A8007802281ED1FFE70298406800285B
:1049D00004D1FFE7344901200870FFE70198302136
:1049E00088430190029840680101019808430190B2
:1049F0000098102188430090029880680101009877
:104A00000843009023E003A8007803281ED1FFE7A5
:104A100002984068002804D1FFE72349012008706C
:104A2000FFE70198C0218843019002984068810106
:104A30000198084301900098202188430090029833
:104A400080684101009808430090FFE7FFE7FFE717
:104A5000FFE701980321090288430190124800787A
:104A6000012804D1FFE702990220086003E00299BF
:104A700000200860FFE702980068010201980843DF
:104A800001900198064908600098064908600249AB
:104A90000020086004B07047A8000040837A00003E
:104AA00010000040240000402906002081B0009042
:104AB000009900200860009A0321516000998860E5
:104AC00001B0704780B586B003A80290FFF7EEFFF3
:104AD00004200121009100F09FFA0099082000F0C5
:104AE0009BFA0099102000F097FA009A0299002092
:104AF00003900223019304930592FFF70FFF0098A0
:104B00000299FFF70BFF01980299FFF707FF06B024
:104B100080BD8CB00B4601460BA801800AA90B8012
:104B2000099200220892805E895E401A08900998D6
:104B300001880898484301900198099949880841DB
:104B4000079009988188089848430190019809992D
:104B5000C988084105900599C817099A5369DA1759
:104B6000C9185041029103900399029B0998026968
:104B7000D017D21A884104DAFFE709980069059036
:104B800010E00398029A0999CB68D917D21A884184
:104B900004DAFFE70998C068059002E002980590E2
:104BA000FFE7FFE7079805994018069006980999CE
:104BB0000A22895E884213DDFFE70698099A0A21D6
:104BC000525E801A04900998405E0690059801286C
:104BD00005DBFFE705980499401A0590FFE71AE006
:104BE000069809990822895E884213DAFFE7069839
:104BF000099A0821525E801A04900998405E069036
:104C00000598002805D5FFE705980499401A0590F6
:104C1000FFE7FFE7FFE7059809994861002106A82B
:104C2000405E0CB07047000081B0014668460170DC
:104C3000104A11491160007800280BD1FFE70F4995
:104C400008684022D243104008600D4908681040AF
:104C5000086009E0094908684022104308600849D3
:104C6000086810430860FFE702490020086001B0AF
:104C70007047C046C00C0140ADDE0000B00C0140E2
:104C8000B40C014070B58CB00AAB02931880000CD4
:104C9000588009A80180089200240B94089901917A
:104CA000005F00F0E1FC019A0299034603A803802B
:104CB0001B0C438040885084039810840A5F089836
:104CC0002023C05E5043C00B05AA108002228D5ED7
:104CD00008982226805F6843C00B04AD28800498A2
:104CE000059D451B0BA805800D5F089CA45F6C43C8
:104CF000E40B07AD2C808A5E0899C95E5143C90B4D
:104D000006AA11800799069A89184180018840886F
:104D1000000440180CB070BD0E4B10B51A6880230B
:104D20000D4C9B02012A10D119682140B222196052
:104D30000A49D2050A600A4A0860106895221206DC
:104D40000A601A6822401A6010BD80211A680901A1
:104D50001143EBE7A0000040FFF7FFFF0400020053
:104D60000C00020084B00390039818300190019861
:104D70001222815E0198805E484301991423CA5E25
:104D80000199C95E51434018029002981649884221
:104D900027D3FFE702A8C178029102993F39029117
:104DA000007841001148415A684601800199122259
:104DB0008A5E0188514302910299CA17520C8918E0
:104DC000C90B019A518201991422895E00884843D7
:104DD00002900298C117490C4018C00B01998882B3
:104DE000FFE704B07047C0460200FF3FD46B0000ED
:104DF00070B588B000910246009806A90A80120C8E
:104E00004A8005900022079202240D5F0598202316
:104E1000C05E6843C00B04AD28808D5E05982226D5
:104E2000805F6843C00B03AD28800498039D45193B
:104E300007A845800D5F059CA45F6C43E40B02ADA1
:104E40002C808A5E0599C95E5143C90B01AA118065
:104E5000029A0199891A018001884088000440184B
:104E600008B070BD88B0079007981830019001987D
:104E70001621415E67484843C013039001981821EA
:104E8000405E401002900198405E0690029803999F
:104E90004018059002980399401A0490059801283B
:104EA00019DBFFE70498012805DBFFE701992422BD
:104EB000022088540EE00698002805DCFFE70199DF
:104EC00024220620885404E00199242201208854D9
:104ED000FFE7FFE718E00498002805DCFFE70199E9
:104EE0002422052088540EE00698002805DCFFE700
:104EF000019924220420885404E0019924220320EB
:104F00008854FFE7FFE7FFE701982421405C401E3B
:104F10000090052861D80098810001A0405887467C
:104F2000394F0000534F00006D4F0000894F0000C3
:104F3000A34F0000BF4F000001990020C8830698CE
:104F4000019988830198808B0499401A01994883BC
:104F500044E001990020C88305980199488301988D
:104F6000408B049940180199888337E0019900200B
:104F70004883059840420199C8830198C08B0699DF
:104F800040180199888329E00199002048830498FA
:104F9000019988830198808B0699401A0199C883EA
:104FA0001CE00199002088830498404201994883BD
:104FB0000198408B0599401A0199C8830EE0019928
:104FC00000208883069840420199C8830198C08BCD
:104FD000059940180199488300E0FFE701981A21DC
:104FE000425E0320800201465143C90B019A51835E
:104FF00001991C228A5E01465143C90B019A918393
:1050000001991E22895E4843C00B0199C88308B0EC
:105010007047C046DA6E000082B0019068460170A9
:10502000194A1A4911600078002806D0FFE7019A52
:10503000064908681043086005E0019A03490868BA
:1050400090430860FFE702B07047C046240000406C
:1050500082B00190684601700B4A0C4911600078DB
:10506000012806D1FFE7019A094908681043086042
:1050700005E0019A0649086890430860FFE7024985
:105080000020086002B07047A8000040837A00004A
:105090009C000040014800687047C04600000020A6
:1050A00082B0019000200090FFE7009801998842AB
:1050B00006D2FFE700BFFFE70098401C0090F4E72E
:1050C00002B0704780B5FDF7D3FDFFF74DFB00F050
:1050D000BDFD66494C220020885280BD80B586B057
:1050E0005F48007D0590042800D9B2E00598810052
:1050F00001A040588746C0460D5100003F510000B6
:105100009D510000EB5100002D52000054480078E2
:10511000012813D1FFE75748007B00280ED1FFE795
:105120005448007C002809D1FFE75248407B002802
:1051300004D1FFE74A4901200875FFE78DE04848A0
:10514000039000210491816041650167454A116027
:1051500079228154FEF7BAFD03980499C184018530
:1051600072B6FDF7BDFD444944480860444AFF203B
:1051700010604448086062B60120FFF755FD0498AE
:1051800053494860FFE752484068012802D8FFE7CA
:1051900000BFF8E73249022008755EE03048007829
:1051A00000281AD0FFE73348007B012815D0FFE71D
:1051B0003048007C012810D0FFE72B4800780128F8
:1051C0000BD0FFE72B48407B012806D0FFE727489C
:1051D0004C21405A002807D0FFE70020FFF724FDAC
:1051E0001F4903200875FFE737E01D49002048608C
:1051F00008701E48006C002817D1FFE71848406867
:10520000002812D1FFE71A480188491C0180008854
:10521000FF21F631884207DBFFE7154900200880AF
:105220000F4904200875FFE7FFE716E00C490191DC
:105230000020029048608860486508670949086056
:10524000094908704870FFF7EFFC0199029808754A
:1052500003E0034903200875FFE706B080BDC046A0
:105260004C06002030060020D8060020BC04002098
:105270006800002090040020C00C0140ADDE00005A
:10528000500C0140FECA000080B5FDF7DDFB80BD7B
:1052900080B582B07F48042100F024F8002815D0A2
:1052A000FFE77C48042100F015F80949019101202D
:1052B0000870087A401C08724889401C4881888917
:1052C000401C8881C889401CC881FFE702B080BDAE
:1052D0001005002082B001900091009801990862A9
:1052E00002B0704783B0019000910198006A019963
:1052F000C96908400099084204D0FFE702A90120CB
:10530000088003E002A900200880FFE702A80088C7
:1053100003B0704782B001906846017000780028A1
:1053200007D0FFE7019908680122D20710430860FF
:1053300006E0019908680122D20790430860FFE760
:1053400002B0704780B582B0019000910198514938
:10535000884205D1FFE710200121FFF779FE20E008
:1053600001984D49884205D1FFE720200121FFF730
:105370006FFE15E001984949884205D1FFE74020BA
:105380000121FFF765FE0AE001984549884205D1F1
:10539000FFE780200121FFF75BFEFFE7FFE7FFE764
:1053A000FFE70098406D019948600098C06D019931
:1053B000C8600098006E019908610098406E0199DC
:1053C00048610098806E019988610098C06E0199CB
:1053D000C8610099886F4002CA6F12021043802290
:1053E0008A58D201104384228A589200104388229E
:1053F0008A58520010438C22895808430199486208
:105400000099486840078A68120710430A6FD2065D
:1054100010434A6F92061043CA68520610430A6945
:10542000120610434A69D20510438A6912051043D7
:10543000CA69D20410430A6A920410434A6A5204A9
:1054400010438A6A12041043CA6A120310430A6B9B
:10545000D20210434A6B920210438A6B52021043ED
:10546000CA6B120210430A6C120110434A6CD2003C
:1054700010438A6C92001043CA6C52001043096DAD
:10548000084301990860019800990978FFF742FFE5
:1054900002B080BD00060140000701400008014045
:1054A0000009014081B000900099002048600099F7
:1054B00088600099C8600099086100994861009966
:1054C00088610099C8610099086200994862009952
:1054D00088620099C862009908630099486300993E
:1054E00088630099C863009908640099486400992A
:1054F00088640099C8640099086500994865009916
:1055000088650099C8650099086600994866009901
:1055100088660099C86600990867009948670099ED
:10552000C867009988670099802288500099842272
:10553000885000998822885000998C22885001B0A8
:105540007047000080B588B040480321FCF7FFFF9A
:1055500001463F48C180C08800F00CFB01463D4831
:10556000018001883C480278531C037053003B4A79
:10557000D1520078082804DBFFE737490020087083
:10558000FFE7002007900690FFE7069807280CDC4D
:10559000FFE7069841003148415A079840180790A4
:1055A000FFE70698401C0690EFE70798C1082948D6
:1055B00041800088C3214900884212DBFFE725496A
:1055C000049101200390087300200590FFF72CFB45
:1055D000039881032248FDF70FFE0499059888730C
:1055E000FFE71C484088C92822DBFFE719484088AC
:1055F000FF212C3188421BDCFFE71A480088632812
:1056000008DCFFE717490888401C08801149002082
:10561000C8730CE00F49019101200290C873810307
:105620000F48FDF7F2FD019902988873FFE70BE040
:1056300008480088B32806DCFFE706490020C87345
:1056400008490880FFE7FFE708B080BD000401407B
:105650007E000020900400207A0000206A000020D4
:10566000C00D01407C00002084B002A90880002009
:10567000039002980121C903401880B2810901A852
:1056800001800088032109020840009000282FD0E3
:10569000FFE7009801210902884239D0FFE700980E
:1056A00001214902884206D0FFE700980321090240
:1056B00088420ED03BE001AA107841002048435AAE
:1056C00003A94B801278FF235A405200805A088069
:1056D0002EE001AA1078FF21484041001848435AA3
:1056E00003A94B8012785200805A404208801FE084
:1056F00001AA107841001248415A4B4203A94B803D
:105700001278FF235A405200805A404208800FE02E
:1057100001AA1078FF21484041000948415A4B42F4
:1057200003A94B8012785200805A088000E0FFE7FE
:1057300003A8018840880004401804B07047C046A0
:10574000566C000080B582B0B748012100F026F801
:10575000002805D0FFE7B448012100F017F8FFE763
:10576000B148022100F01AF800280BD0FFE7AE483C
:105770000190022100F00AF8019800F0AFF8024908
:105780000870FFE702B080BDDC06002082B0019007
:10579000009100980199086202B0704783B00190AF
:1057A00000910198006A009908400199C96908426E
:1057B00003D0FFE70120029002E000200290FFE703
:1057C000029803B07047000080B586B00590049140
:1057D0000598354988420FD1FFE701218803FFF77B
:1057E00037FC0498006801908F4800F05FF801468C
:1057F000019800F081F811E005988B4988420CD19E
:10580000FFE70121C803FFF723FC274800F04EF80B
:105810000499096800F070F8FFE7FFE70498C07981
:10582000012805D1FFE701200290002003900DE040
:105830000498C079022804D1FFE701200290039068
:1058400003E0002002900390FFE7FFE70499087946
:105850004A79520010438A7992001043039AD20089
:105860001043029A120110430A7A520110434A7AF5
:1058700092011043897AC901084305990860049987
:10588000887C4000497C08430599486204988089D7
:10589000059908610498007C059988610498C0897D
:1058A0000599C86106B080BD0010014080B582B086
:1058B0000190FFF7EFFB3C490968491CFAF7B6FD78
:1058C000019949680902019A92688918491CFAF7F6
:1058D000ADFD0090009802B080BDC04681B0009040
:1058E0000098C06801B0704782B0019000910098A4
:1058F0000199C86002B0704780B588B007900691E2
:10590000FFF7C8FB0799FAF791FD0590FFF7C2FB77
:105910000699FAF78BFD049005980499884203D9FB
:10592000FFE70598019002E004980190FFE70198D5
:10593000039003A8408802900298401C02900299AC
:105940000598FAF773FD059002990498FAF76EFD31
:1059500004900598401E05900498401E049005A8E8
:1059600001780B4A116040780A49086004A8017860
:10597000094A1160407809490860094909480860E6
:105980000298401E084A10600020086008B080BDE0
:1059900008100140041001400811014004110140A9
:1059A000A8000040837A00009800004081B0009079
:1059B00000994B20C00108600099002008710099EF
:1059C0004871009988710099C8710099087200990E
:1059D000487200998872009988810099C88100995D
:1059E00048740099887401B07047000080B588B091
:1059F00001210191C803FFF72BFB03A80290FFF7D9
:105A0000D5FF01980299E1225202039200220A7105
:105A10004A718A71CA710222CA8108740248FFF76A
:105A2000D3FE08B080BDC0460011014080B5A6B0CD
:105A300002A80090FFF736FD009900201490139003
:105A40000F900E90094A1792094A19921A921C90C7
:105A5000089004201D9007480190FFF773FC0198FF
:105A60000121FFF757FC26B080BDC04680BB000077
:105A7000C05D00000006014081B00146684601702B
:105A800000214056002809D4FFE7684601781F200E
:105A900001400120884002490860FFE701B07047DB
:105AA00000E100E070B582B0024601A802700091EA
:105AB00000214056002816D4FFE7002401A908570A
:105AC0000322D3431840174A805809578C07E50E24
:105AD000FF24AC40A043009CA401E4B2AC402043AE
